S0110000436172644D657465722E737265639C
S11300000C9446000C9450000C9450000C94500036
S11300100C9450000C9450000C9450000C9450001C
S11300200C9450000C9450000C9450000C9450000C
S11300300C9450000C9450000C9450000C945000FC
S11300400C9450000C9450000C9450000C945000EC
S11300500C9450000C9450000C9450000C945000DC
S11300600C9450000C9450000C9450000C945000CC
S11300700C9450000C9450000C9450002201260162
S11300802A012E01320136013A013E0111241FBE1C
S1130090CFEFCDBFDFE3DEBF0E9442010C949E028E
S11300A00C940000CF92DF92EF92FF920F931F9374
S11300B0DA01F9019B01AC01012E1EE15695479529
S11300C0379527951A95D1F7102D21702C939B0104
S11300D0AC01012E1DE156954795379527951A9544
S11300E0D1F7102D217020839B01AC01012E1CE15E
S11300F056954795379527951A95D1F7102D217068
S11301002183262F2F7022836B017C01689413F8BE
S1130110F694E794D794C7941694D1F7FF24F80182
S1130120C082D182E282F382DC01CB01809590957A
S1130130A095B0958827B7FD83959927AA27BB2753
S11301401F910F91FF90EF90DF90CF900895489802
S113015082B1489A82FB882780F908950B984898C1
S113016030E280E090E0DC010B9A0B98880F991F35
S1130170AA1FBB1F22B122FB222720F9822B315058
S113018099F7489ABC01CD010895AF92BF92CF92DE
S1130190DF92FF920F931F93CF93DF93CDB7DEB718
S11301A02897CDBFDEBF5C016B016894FF24F1F892
S11301B00E94A7008823E1F30E94AE008E010F5F26
S11301C01F4F9E012A5F3F4FAE014B5F5F4F0E945E
S11301D052008D8181110AC089819A81AB81BC81D1
S11301E0F50180839183A283B38309C089819A81B5
S11301F0AB81BC81F60180839183A283B383FA949B
S1130200F110D6CF2896CDBFDEBFDF91CF911F91DD
S11302100F91FF90DF90CF90BF90AF90089595B16C
S113022040E1849F9001112420779F78922B95B907
S1130230089590E08830910520F5FC01E25CFF4FC1
S11302400C94630280E00E940F01089581E00E94F3
S11302500F01089582E00E940F01089583E00E9437
S11302600F01089584E00E940F01089585E00E9423
S11302700F01089586E00E940F01089587E00E940F
S11302800F010895CF93DF93CDB7DEB76897CDBF45
S1130290DEBF0E945D020E94D20180E00E9419012B
S11302A042E064E08BE197E80E943F02BE016B5F8D
S11302B07F4FCE0101960E94C50043E060E081E2D9
S11302C097E80E943F0244E060E081E297E80E94E0
S11302D03F0240E1BE01675F7F4F89819A810E949E
S11302E0690243E060E0CE0109960E943F0240E1CA
S11302F0BE01675F7F4F8D819E810E94690244E049
S113030060E0CE0109960E943F02D0CF0B98499835
S113031099B1977F613011F020E001C028E0922B61
S113032099B967E070E0E82FF0E00B9891B19F0174
S1130330062E02C0359527950A94E2F721703327DB
S1130340220F331F9D7F292B21B90B9A615071090C
S113035060F7411101C0499A0895CF93C62F90EADE
S1130360980F903A10F0806801C080EE41E060E0A0
S11303700E94860188EF8C0F883F18F08C2F8064D0
S113038001C088E440E060E00E948601CF910895B6
S113039060E080E00E94AD0141E061E080E00E9405
S11303A08601FACF499A4A988FE99FE00197F1F7BD
S11303B000C000004A9A41E060E081E20E948601A8
S11303C041E060E085E00E94860141E060E085E173
S11303D00E94860141E060E083E90E94860141E0D9
S11303E060E08AE00E94860141E060E080E20E94D1
S11303F0860141E060E08CE00E94860140E060E01C
S113040081E10E94860141E060E080E80E9486016B
S113041040E060E080E40E9486010E94C801FF92EF
S11304200F931F93CF93DF93F62E082F10E0005203
S11304301109C801880F991F880F991F080F191FE8
S1130440E801C05CDA470B5B1A4741E061E089913F
S11304500E948601C017D107C1F7FF2029F040E0B0
S113046061E080E00E948601499A85E08A95F1F76F
S11304700000DF91CF911F910F91FF900895CF93CA
S1130480DF93EC01862F90EA960F903A08F480E609
S11304909FEB940F9F3B08F441E4642F0E94AD014D
S11304A08881882339F0219661E00E940F028991A6
S11304B08111FACFDF91CF9108958AE780B914B8FA
S11304C08FE088B90895EE0FFF1F0590F491E02D99
S11304D00994BB274A3031F4992322F4BDE2909564
S11304E081959F4F0C947502BB27FB015527AA27C2
S11304F0880F991FAA1FA41710F0A41B83955051AD
S1130500B9F7A05DAA3308F0A95DA193009779F724
S1130510B111B1931192CB010C948E02DC01FC0158
S1130520672F71917723E1F7329704C07C916D9323
S113053070836291AE17BF07C8F30895F894FFCF94
S1130540000000000000005F000000070007001426
S11305507F147F14242A7F2A1223130864623649E5
S11305605522500005030000001C224100004122D6
S11305701C0014083E081408083E08080050300007
S11305800008080808080060600000201008040241
S11305903E5149453E00427F400042615149462157
S11305A041454B311814127F1027454545393C4AC3
S11305B04949300171090503364949493606494913
S11305C0291E003636000000563600000814224169
S11305D000141414141400412214080201510906D1
S11305E0324979413E7E1111117E7F494949363E97
S11305F0414141227F4141221C7F494949417F09B0
S11306000909013E4149497A7F0808087F00417F72
S113061041002040413F017F081422417F40404077
S1130620407F020C027F7F0408107F3E4141413E1F
S11306307F090909063E4151215E7F091929464671
S11306404949493101017F01013F4040403F1F209A
S113065040201F3F4038403F63140814630708706C
S113066008076151494543007F41410002040810D5
S11306702004020102044040404040000102040002
S113068020545454787F48444438384444442038EF
S11306904444487F3854545418087E0901020C52CB
S11306A052523E7F0804047800447D4000204044B8
S11306B03D007F1028440000417F40007C04180462
S11306C0787C0804047838444444387C14141408AE
S11306D0081414187C7C0804040848545454200456
S11306E03F4440203C4040207C1C2040201C3C4097
S11306F030403C44281028440C5050503C4464542E
S11307004C44000836410000007F000000413608D8
S11307100010080810087846414678486579202179
S10C0720002020202020202000EC
S9030000FC
